:100000000C9485040C94CC040C94CC040C94CC0477
:100010000C94CC040C94CC040C94CC040C94CC0420
:100020000C94CC040C94CC040C9400250C94BC24AB
:100030000C94082C0C94CC040C94CC040C94CC049C
:100040000C94CC040C94CC040C94CC040C94CC04F0
:100050000C942F2C0C94E42B0C94CC040C94CC0416
:100060000C94CC040C94CC040C94CC040C94CC04D0
:100070000C94CC040C94CC040C94CC040C94CC04C0
:100080000C94CC040C94CC040C94CC040C94CC04B0
:100090000C94CC040C94CC040C94CC040C94CC04A0
:1000A0000C94CC040C94CC040C94CC0405010902EF
:1000B000A10185020901A1000509190129081500FE
:1000C0002501950875018102050109300931158165
:1000D000257F95027508810609381581257F9501D0
:1000E00075088106050C0A38021581257F95017572
:1000F000088106C0C005010980A101850319012AF4
:10010000B700150126B700950175108100C0050CD8
:100110000901A101850419012AA002150126A002E6
:10012000950175108100C005010906A1018505052D
:100130000719E029E71500250195087501810205D9
:1001400007190029EF1500250195F07501810205B9
:10015000081901290595057501910295017503910D
:1001600001C00660FF0961A1010962150026FF00B8
:100170009520750881020963150026FF00952075FA
:10018000089102C005010906A101050719E029E748
:1001900015002501950875018102950175088101F9
:1001A0000507190029FF150026FF0095067508812F
:1001B000000508190129059505750191029501753C
:1001C000039101C0000101010101010101010202CD
:1001D00002020202020202030303030303030304F5
:1001E00004040404040405050505050606060606C0
:1001F000070707070708080808090909090A0A0A7A
:100200000B0B0B0C0C0C0D0D0D0E0E0E0F0F0F101B
:1002100010111111121213131414151516161717A5
:10022000181819191A1A1B1B1C1D1D1E1E1F202011
:10023000212222232424252626272829292A2B2C5B
:100240002D2D2E2F30313232333435363738393A7E
:100250003B3C3D3E3F404142434445464748494A76
:100260004C4D4E4F50515354555658595A5B5D5E44
:100270005F616264656668696B6C6D6F70727375DF
:1002800077787A7B7D7E8082838587888A8C8E8F43
:1002900091939596989A9C9EA0A2A3A5A7A9ABAD71
:1002A000AFB1B3B5B7BABCBEC0C2C4C6C9CBCDCF5F
:1002B000D1D4D6D8DBDDDFE2E4E7E9EBEEF0F3F50D
:1002C000F8FAFDFFFFAA7F55402223252628292A78
:1002D0002C2D2F3032333536383A3B3D3E404243A9
:1002E0004547494A4C4E5051535557595A5C5E60E8
:1002F00062646668696B6D6F71737577797B7D7FFA
:1003000081838587898A8C8E90929496989A9C9EF8
:100310009FA1A3A5A7A8AAACAEAFB1B3B4B6B8B914
:10032000BBBCBEBFC1C2C3C5C6C7C9CACBCCCDCE7C
:10033000D0D1D2D2D3D4D5D6D7D7D8D9D9DADADB5F
:10034000DBDBDCDCDCDCDCDDDDDDDDDCDCDCDCDCEB
:10035000DBDBDBDADAD9D9D8D7D7D6D5D4D3D2D22A
:10036000D1D0CECDCCCBCAC9C7C6C5C3C2C1BFBE12
:10037000BCBBB9B8B6B4B3B1AFAEACAAA8A7A5A37D
:10038000A19F9E9C9A98969492908E8C8A8987853C
:1003900083817F7D7B79777573716F6D6B6968661B
:1003A0006462605E5C5A5957555351504E4C4A49ED
:1003B00047454342403E3D3B3A3836353332302F95
:1003C0002D2C2A29282625232200000000000000C9
:1003D0000000000001010203040506080A0C0F11C9
:1003E00014181C2024292E33393F464C535B626A73
:1003F0007179818A929AA2AAB2B9C1C8CFD5DCE13B
:10040000E7EBF0F4F7FAFCFDFEFFFEFDFCFAF7F473
:10041000F0EBE7E1DCD5CFC8C1B9B2AAA29A928AC3
:100420008179716A625B534C463F39332E2924200F
:100430001C1814110F0C0A08060504030201010020
:1004400000000000000000000029003A003C003ECF
:10045000004000420044004600480000003B003DD0
:10046000003F004100430045004700000035001FE9
:100470000021002300250027002E0049004B001E0C
:100480000020002200240026002D002A004A00003F
:10049000002B001A0015001C000C00130030004C4B
:1004A000004E00140008001700180012002F003141
:1004B000004D0000003900160009000B000E00334B
:1004C000004C0000000000040007000A000D000FAF
:1004D000003400280000000000E1001D00060005B7
:1004E0000010003700E5000000000031001B00197B
:1004F000001100360038004C0052000000E000E21D
:100500000000002C00E6006500000050004F00E3F2
:10051000000000000000000000E700E400510000BF
:1005200000010001000100010001000100010001C3
:1005300000010000000100010001000100010001B4
:1005400000010000000100010001000100010001A4
:100550000001000100010001000100010001000193
:100560000001000100010000000100010001000184
:100570000001000100010001000100010001000173
:100580000001000100010001000100000001000164
:100590000001000100010001000100000000000155
:1005A0000001000100010001000100010000000045
:1005B0000001000100010001000100010001000034
:1005C0000000000100010001000100010001000124
:1005D0000001000000010001000000010001000115
:1005E0000000000100010001000000000000000008
:1005F00000010001000100000001000100010001F4
:1006000000010001000100010001000000010001E3
:1006100000010001000100010001000000010001D3
:1006200000010001000100010001000100010001C2
:1006300000010001000100010001000100010000B3
:1006400000010001000100010001000100010001A2
:100650000001000100010001000100010001000192
:100660000001000000010001000100010001000183
:100670000001000000000001000100010001000174
:100680000001000100000000000100010001000164
:100690000001000100010000000000010001000154
:1006A0000001000100010001000100000001000143
:1006B0000000000100010001000000010001000134
:1006C0000000000000000000000100010001000027
:1006D0000001000100010001000100010001000112
:1006E0000001000000010001000100010001000103
:1006F00000010000000100010001000100010001F3
:1007000000010001000100010001000100010001E1
:1007100000010001000100000001000100010001D2
:1007200000010001000100010001000100010001C1
:1007300000010001000100010001000000010001B2
:1007400000010001000100010001000000000001A3
:100750000001000100010001000100010000000093
:100760000001000100010001000100010001000082
:100770000000000100010001000100010001000172
:100780000001000000010001000000010001000163
:100790000000000100010001000000000000000056
:1007A0000001000100010000000000000000000046
:1007B0000000000000000000000000000000000039
:1007C000000000000000000000000000007E0F009C
:1007D000D4FFFFFFC7000000780000000000000009
:1007E000002A2B280000000000000000000000008C
:1007F0000000000029000000002C1E3420212224CB
:10080000342627252E362D3738271E1F2021222358
:100810002425263333362E37381F040506070809EA
:100820000A0B0C0D0E0F10111213141516171819B0
:100830001A1B1C1D2F3130232D350405060708090E
:100840000A0B0C0D0E0F1011121314151617181990
:100850001A1B1C1D2F3130354C1E0F0500047F3F25
:100860001F643214643214783C1E1E140A050902F7
:100870005B00030100A0FA0904000001030101006C
:100880000921110100012240000705810308000A27
:1008900009040100020300000009211101000122E6
:1008A0002200070582032000010705030320000141
:1008B00009040200010300000009211101000122C6
:1008C000B6000705840320000A1201100100000091
:1008D000080D0069190100010200011003530070A6
:1008E0000061006300650038003000000016034717
:1008F00000720061007900530074007500640069A3
:10090000006F000000040309040011241FBECFEF94
:10091000DAE0DEBFCDBF04B603FE27C08091AE0390
:100920009091AF03A091B003B091B1038730904B89
:10093000A740B04BD1F41092AE031092AF031092C7
:10094000B0031092B10314BE84B7877F84BF0FB683
:10095000F894A8958091600088618093600010925F
:1009600060000FBEE0E0F8E3099523E0AEEAB1E0F5
:1009700001C01D92AE3AB207E1F711E0A0E0B1E08C
:10098000E2E5FDE502C005900D92AE3AB107D9F758
:100990000E94D7250C94162E0C940000E8EDF0E090
:1009A00080818E7F80831092E2001092DA00109294
:1009B000E100A0EEB0E08C9181608C9380818F7714
:1009C000808319BCA7EDB0E08C918E7F8C938081E1
:1009D0008F7E80831092780308952091E4003091F7
:1009E000E50095E6A9012091EC00822F817020FF9F
:1009F00006C08091E80080FF06C080E00895209145
:100A0000E80022FD1AC080919D03882389F085307B
:100A100089F08091EB0085FD0FC02091E4003091BA
:100A2000E50042175307F9F29150E1F684E008958A
:100A300082E0089583E0089581E00895EF92FF92A7
:100A40000F931F93CF937C018B010E94ED04C82F5D
:100A5000811117C08091E80085FD0BC08091E800EE
:100A60008E778093E8000E94ED04882399F3C82FC5
:100A700008C0F70181917F018093F10001501109B5
:100A800049F78C2FCF911F910F91FF90EF90089510
:100A900080919F0387FF13C08091E80082FF06C00A
:100AA0008091E8008B778093E80004C080919D03DB
:100AB0008111F2CF089580919D038823D9F380910D
:100AC000E80080FFF8CF8091E8008E77ECCF982F78
:100AD0009093E900242F762F50E0891731F0709120
:100AE000EC002091ED005091F00021FD07C09F5FC8
:100AF000973071F78093E90081E008953091EB0021
:100B00003E7F3093EB003091ED003D7F3093ED0060
:100B10003091EB0031603093EB007093EC00209348
:100B2000ED005093F0002091EE0027FDE0CF80E033
:100B30000895CF92DF92EF92FF920F931F93CF937E
:100B4000DF93C8EDD0E088818F7E8883E7EDF0E009
:100B500080818160808384E082BF81E0809378031C
:100B600088818E7F888302EE10E0F8011082109257
:100B7000DA0081EEC82ED12CF601108288818F77A1
:100B8000888388818068888388818F7D888319BC69
:100B900010929D0310929E0310929C0310929B034F
:100BA00090EEE92EF12CF70180818B7F8083888184
:100BB0008160888342E060E080E00E946705F60182
:100BC00080818E7F8083F801808181608083808135
:100BD00088608083F70180818E7F80838881806137
:100BE0008883DF91CF911F910F91FF90EF90DF905D
:100BF000CF900895FC018091A5039091A6038617DC
:100C00009707A0F06115710529F49091E8009E778F
:100C10009093E80090E06115710551F4911108C0BE
:100C20008091E80082FF34C080E00895BC01F2CFDB
:100C300080919D038823C1F18530C1F18091E80046
:100C400083FD30C08091E80082FDEACF8091E8000A
:100C500080FFE1CF8091F3002091F200382F6115E1
:100C6000710519F02830310558F091E02830310530
:100C700009F090E02091E8002E772093E800CBCF98
:100C800081918093F100615071092F5F3F4FE7CF51
:100C900080919D03882341F0853041F08091E800E8
:100CA00083FFBECF81E0089582E0089583E0089538
:100CB000089580E0089580917A0308959C014FB7CC
:100CC000F8948091740390917503A0917603B0918C
:100CD00077034FBF821B930B08952FB7F894809131
:100CE000740390917503A0917603B09177032FBFA1
:100CF000089580910003811110920003089580915E
:100D0000FF029091FE02892B9091FD02892B809326
:100D1000B001909100039923A1F0892B8093B00139
:100D200080912201882341F18091200387FF24C014
:100D30008EE1E2EBF1E090E0815000F591110E942C
:100D40007906E0912303F09124033097E1F080913C
:100D50002201882359F08091200387FF07C08091EA
:100D6000B0018093B10185E08093B0010280F381EE
:100D7000E02D80EB91E0099486E0DBCF21912223E6
:100D8000D9F29F5FD9CF0895909122019923D1F094
:100D90009091200397FF16C0E82FE695E695E6951B
:100DA000EE31E0F4F0E0E055FE4F282F277081E0AF
:100DB00090E001C0880F2A95EAF7809592818923F7
:100DC00082830895E2EBF1E09191891303C0DF0182
:100DD00011971C9291E0E83BF907B1F708959091C3
:100DE00022019923C1F09091200397FF14C0E82FAE
:100DF000E695E695E695EE31F8F4F0E0E055FE4F25
:100E0000877021E030E001C0220F8A95EAF78281E5
:100E1000822B82830895A2EBB1E0EFEF90E02D9159
:100E2000821751F0EF3F19F4211101C0E92F9F5FA4
:100E30009630A9F7EF3F09F408950E2E000CFF0B32
:100E4000E055FE4FE6CF29E0929F800D1124982FA8
:100E5000977086958695869525E0829FF0011124EE
:100E6000EA54FD4F50E040E080E0219130E0092E4F
:100E700002C0369527950A94E2F721703327042E95
:100E800001C0220F0A94EAF7822B4F5F5F4F453073
:100E9000510559F7089529E0929F800D1124982F4C
:100EA000977041E001C0440F9A95EAF786958695C0
:100EB000869595E0899FF0011124EA54FD4F90E05A
:100EC00080E070E05191DF0111979B01082E02C074
:100ED000369527950A94E2F721702195252724233A
:100EE00025272C9301968530910561F7089580910F
:100EF000B50290918402981301C008958F5F8770A6
:100F0000FACF882341F080959091FF028923809346
:100F1000FF020C947F060895882339F09091FF0218
:100F2000982B9093FF020C947F06089520917802ED
:100F3000309179022817390771F0909379028093E4
:100F40007802E0912303F0912403309721F000848C
:100F5000F185E02D09940895209176023091770271
:100F60002817390771F09093770280937602E09109
:100F70002303F0912403309721F00680F781E02DC0
:100F800009940895E0912303F0912403309721F010
:100F90000190F081E02D099480E00895CF92DF92D6
:100FA000EF92FF928C3724E1920750F469E070E0F1
:100FB0000E94BE2CCB01FF90EF90DF90CF90089560
:100FC000B0E0A0E0BC01CD016A50774D8F4F9F4F3C
:100FD000982F872F762F662725EF38E241E050E0E3
:100FE0000E94E52D69017A01CA01B9010E94942C81
:100FF0009B01AC01C701B6010E94942C672F782F8A
:10100000892F99276115710521E08207910591F6D5
:101010006FEF7FEFCFCF8430E0F481111BC0909150
:101020008000977F909380002F98282F30E0AFEFBB
:10103000BFEF0E94072E23E030E040E050E00E9426
:10104000E52DC9010E94CE0790938D0080938C00FE
:10105000089583E090918000986090938000E5CFA0
:10106000282F220F220F220F909154039770922B5A
:1010700090935403987F21E009F420E09091540369
:1010800020FB90F9909354030C940B08FA01811102
:1010900001C0FB01099480915703982F9E7F61F452
:1010A000817082608093570380915A03893C18F0C5
:1010B00088EC80935A0308958635B0F38170846577
:1010C000F1CFAF92BF92DF92EF92FF920F931F93F7
:1010D000CF93DF93182F062FE901493C08F048EC25
:1010E000E42FF0E0EC53FE4F011110C0E4915E2FAD
:1010F0004E2F4983E8835A83DF91CF911F910F913F
:10110000FF90EF90DF90BF90AF900895202F30E0D8
:101110004491D42EE42EF12C56E0159FC0011124E9
:10112000EFEFF0E0BF010E94BE2C812F90E0880F0E
:10113000991F55E5569FD001579FB00D11248A1B6A
:101140009B0B982F990F890F5F01A21AB30AAE9CCF
:10115000D001AF9CB00DBE9CB00D11245B2F089F39
:1011600080011124012F11275F01A01AB10AAE9C42
:101170008001AF9C100DBE9C100D11245F01A81AB8
:10118000B108A29EC001A39E900DB29E900D1124A5
:10119000892F9927E81BF90BEE9DC001EF9D900D5B
:1011A000FE9D900D1124E92F62307105A1F050F4DD
:1011B0006115710509F49DCF6130710581F0EB2F48
:1011C000512F97CF6430710569F080F0663071055A
:1011D00009F48FCFF4CFE42F4B2F592F8ACFE42F70
:1011E000412F87CFEB2F542F492F83CF4B2F5D2DCE
:1011F000E12F7FCF0E946D069C0190913603809174
:101200003703982B21F030933303209332039091CE
:10121000380380913903982B21F0309330032093C9
:101220002F03E0912303F0912403309749F082E0EB
:10123000809334030480F581E02D84E393E00994E6
:10124000089590E080E00E94AC0790E080E00E946A
:1012500096071092FE021092FD020E947F0686E021
:10126000E4E3F3E0DF011D928A95E9F71092310380
:1012700010922E0310927D020C94FA086093AA0338
:101280007093AB038093AC039093AD030C9421094E
:101290000F931F936091AA037091AB038091AC03ED
:1012A0009091AD038B019C010670112722273327F3
:1012B000063011052105310529F468601F910F9151
:1012C0000C943E09677FFACF0F931F9341E050E0E3
:1012D00060E070E004C0440F551F661F771F8A95B9
:1012E000D2F7CB01BA0160957095809590950091E9
:1012F000AA031091AB032091AC033091AD0360239E
:101300007123822393231F910F910C943E09909196
:10131000FC02809589238093FC02282F277071F4AA
:10132000282F082E000C330B9217130639F08595E1
:10133000859585950E9464091092FC0208950F938B
:101340001F9341E050E060E070E004C0440F551F7F
:10135000661F771F8A95D2F78091AA039091AB03FD
:10136000A091AC03B091AD038A019B01082B192B0E
:101370002A2B3B2BC901B8011F910F910C943E09F8
:10138000609301037093020380930303909304031B
:101390000C942109409136038D3E59F48091370316
:1013A00087FF0DC01092370341110BC0109231031B
:1013B00008C08E3E81F48091370318169CF34423B5
:1013C00081F08091380390913903892B09F05AC03C
:1013D00010922E0308958F3E49F447FFF0CF1092EC
:1013E0003603809137038111ECCFE0CF803F19F4B1
:1013F0001416ACF3E4CF90913803893F29F4191601
:10140000F4F610923803DBCF8A3F19F497FFD7CF59
:10141000F8CF909139038B3F29F497FFD0CF1092EA
:101420003903CDCF8C3F19F41916CCF3C8CF9FE008
:10143000980F983090F4815F990B21E030E0B9016A
:1014400002C0660F771F8A95E2F7CB0180959091D5
:101450003503892380933503B2CF8D3F31F48091DA
:101460007D028E7F80937D02AACF8E3F21F48091F2
:101470007D028D7FF7CF8F3F09F0A1CF80917D0254
:101480008B7FF0CF0895882309F459C0823871F416
:101490000E94C20781FF53C089E30E94EF060E94A9
:1014A0007F0689E30E94C4060C947F06833859F4B2
:1014B0000E94C20780FF43C083E50E94EF060E949E
:1014C0007F0683E5EFCF843859F40E94C20782FF7C
:1014D00036C087E40E94EF060E947F0687E4E2CFD1
:1014E0009CEF980F913AF0F290E2980F983088F4C0
:1014F000877021E030E0A90102C0440F551F8A9592
:10150000E2F7CA0180959091FF0289238093FF0240
:10151000CBCF9BE5980F933020F490E080E00C94C3
:10152000AC0798E5980F973120F490E080E00C9498
:1015300096078D3E20F00E94CA090C94FA0808957F
:1015400080917D0280FF0CC06091130170E0759561
:101550006795759567956115710549F1862F089511
:1015600081FF06C06091130170E075956795F3CF18
:101570006091130182FD0BC090912E039923A1F07D
:101580006091120180911301961738F0682F70E076
:101590006038710500F38FE70895899FC001112419
:1015A00070E00E94D22CF4CF61E070E0D7CF81E0F0
:1015B000089580917D0280FF12C06091150185E041
:1015C000689FB0011124759567957595679560388A
:1015D0007105A8F561157105A1F1862F089581FFA8
:1015E00009C06091150185E0689FB00111247595CF
:1015F0006795EDCF6091150182FD0AC0809131039E
:101600008823D1F09091140160911501891728F079
:1016100085E0689FB0011124DACF869FB0011124C4
:1016200085E0869F9001879F300D1124692F70E01F
:10163000C9010E94D22CCBCF65E070E0CECF8FE7FE
:10164000089581E008958D3E31F40E94D90A819574
:101650008093370308958E3E19F40E94D90AF8CF7B
:101660008F3E31F40E94D90A819580933603089504
:10167000803F19F40E94D90AF8CF893F29F40E94CB
:10168000A00A8093380308958A3F21F40E94A00A9B
:101690008195F7CF8B3F31F40E94A00A819580930A
:1016A000390308958C3F19F40E94A00AF8CF9FE0F7
:1016B000980F983070F4815F990B21E030E001C001
:1016C000220F8A95EAF780913503822B80933503A8
:1016D00008958D3F31F480917D02816080937D0279
:1016E00008958E3F21F480917D028260F7CF8F3F75
:1016F000B9F780917D028460F1CF833011F128F435
:10170000813049F0823091F00895853081F120F1E7
:101710008630C1F1089580911601681720F4861B68
:101720008093160108951092160108958091170173
:10173000681720F4861B80931701089510921701F3
:10174000089580911501681720F4861B8093150178
:10175000089510921501089580911401681720F4DE
:10176000861B8093140108951092140108958091AE
:101770001301681720F4861B8093130108951092BB
:101780001301089580911201681720F4861B80933D
:1017900012010895109212010895833081F128F406
:1017A000813059F08230D1F00895853009F449C074
:1017B000B8F1863009F456C0089580911601482F7B
:1017C000460F5527551F4F3F510524F4680F60936E
:1017D000160108958FEF80931601089580911701E7
:1017E000482F460F5527551F4F3F510524F4680FCA
:1017F0006093170108958FEF8093170108958091EA
:101800001501482F460F5527551F4F3F510524F40A
:10181000680F6093150108958FEF80931501089567
:1018200080911401482F460F5527551F4F3F5105F2
:1018300024F4680F6093140108958FEF80931401CE
:10184000089580911301482F460F5527551F4F3F8C
:10185000510524F4680F6093130108958FEF80936E
:101860001301089580911201482F460F5527551FE7
:101870004F3F510524F4680F6093120108958FEFD4
:10188000809312010895F894E82FE295EF70F0E04C
:1018900031A1282F2F7081E090E001C0880F2A9598
:1018A000EAF7982F9095932391A392A1892B82A375
:1018B000789408959091200392FF06C0282F2871F4
:1018C0002830F9F4877F846093FF06C0282F2871A1
:1018D0002831F1F4877E84612091210320FF06C026
:1018E000382F38713830D9F4877F816021FF06C0E6
:1018F000282F28712831D1F4877E816194FD877E5D
:101900000895282F24712430F9F68B7F8860DCCF6E
:10191000282F2471243101F78B7E8861DDCF382F89
:101920003171313019F78E7F8860E0CF282F217117
:10193000213121F78E7E8861E1CFCF9384E090E062
:101940000E946B2DC82F81E290E00E946B2D982F92
:101950008C2FCF9108950F931F93CF93DF93C42FB4
:10196000D0E0CC0FDD1F22E1629FC00DD11D1124FC
:1019700038ED839FC00DD11D1124CE0186960E94A3
:101980006B2D082F10E0102F0027CE0187960E94A4
:101990006B2D9801282BC901DF91CF911F910F91D9
:1019A0000895462F843038F47C3028F4693018F4D8
:1019B000672F0C94AB0C90E080E00895CF93DF93F9
:1019C0000E94D10CEC0182389105A9F1D8F5813340
:1019D000910509F496C048F58932910509F48AC049
:1019E0008A9709F495C0C11521E5D20708F0BCC05B
:1019F000C11530E5D30708F014C1C83ED10508F081
:101A00009CC0C03ED10560F5C83AD10508F087C03A
:101A1000C53AD10508F0FDC0C130D10509F12097C4
:101A2000F9F0C430D105E0F440C08533910509F4E4
:101A30005AC0C997C1F680912003837089F0C0EE27
:101A4000D0E00EC0833E910599F170F4803E91057F
:101A500001F1823E910539F68091200382FD21C07B
:101A6000CE01DF91CF910895863E910561F1873EC9
:101A7000910571F1843E910509F0B5CF8091210364
:101A800081FFEECF80912003C7EED0E084FD0DC032
:101A9000E7CF8091200380FD12C19091210390FF38
:101AA000DFCFC3EED0E084FFDBCFD0E0C0E0D8CF03
:101AB0008091200382FD06C19091210390FDBFCF4C
:101AC00084FFCECFF2CF8091200383FDDDCFC8CF3E
:101AD0008091200383FDF9C09091210391FFF0CF05
:101AE000C4EED0E0BDCF8091200385FFB9CFC9E21D
:101AF000D0E0B6CF8091200385FFB2CFC5E3D0E020
:101B0000AFCF8091200386FFABCFCAE2D0E0A8CF51
:101B10008091200386FFA4CFC1E3D0E0A1CFCF3BCB
:101B2000D10518F6C85AD0E0CC0FDD1FC55ADE4FDC
:101B30000990D881C02DD46493CFC11540E2D40759
:101B400058F4C11581E0D80708F08ACFCD3ED10501
:101B500008F4ABCFD06584CFC11590E4D90708F461
:101B6000A4CFDF70D06A7CCFC11525E5D20700F580
:101B7000C11534E5D30708F08AC0C11543E5D40781
:101B800008F071C0C11582E5D80708F467C0CE011E
:101B90008370992721E030E002C0220F331F8A951D
:101BA000E2F7C695C69580E2C89FE001112452C0B5
:101BB000C11599E5D907A8F4C11528E5D20708F0A1
:101BC0006BC0C11536E5D30708F06FCF8C2F0E948C
:101BD0005A0CC82FD0E0DC2FCC27CC27DF71D06285
:101BE0003FCFC1154AE5D40708F45BC0CE0190563B
:101BF0008115904208F059CF8D2F8F710E945A0C99
:101C000090E0982F882788279F719C012C2BE90151
:101C1000E6CFC55AD0E0C85ADE4FC881D0E0D064C4
:101C20001FCFCE01E4E096958795EA95E1F78370A2
:101C30002C2F26952695237040E2249F9001112495
:101C4000382B8C2F8370C1E0D0E002C0CC0FDD1F99
:101C50008A95E2F7C22BD32BDC6802CFDC2FCC278E
:101C6000C16FD06AFDCECE018370992721E030E0AC
:101C700002C0220F331F8A95E2F7C695C69590E2FF
:101C8000C99FE0011124C22BD32BDA68E9CEDC2FE7
:101C9000CC27C46FD06AE4CEDC2FCC27C06FD06ACB
:101CA000DFCE8C2F8F700E945A0C34E0D695C795EA
:101CB0003A95E1F7CF709C2FEC01D069D1CEC9E302
:101CC000D0E0CECEC2EED0E0CBCEC6EED0E0C8CED5
:101CD000BF92CF92DF92EF92FF920F931F93CF9319
:101CE000DF938C01C090AA03D090AB03E090AC03CB
:101CF000F090AD038091010390910203A091030342
:101D0000B0910403C82AD92AEA2AFB2ACFE1D0E0FD
:101D1000BC2ED701C6010C2E04C0B695A795979589
:101D200087950A94D2F780FD0EC0219788F7B12CD1
:101D30008B2DDF91CF911F910F91FF90EF90DF904E
:101D4000CF90BF900895B8018C2F0E94DE0C0197B0
:101D500061F3EECFCF93DF93EC010E94680EBE01DA
:101D6000DF91CF910C94DE0C0E94AA0E292F2F70C8
:101D700092959F7092509E3078F4E92FF0E0E85EE3
:101D8000F14D0C94E62C803F19F020F4883E20F4AD
:101D900081E00895843FE1F380E00895883EC0F338
:101DA000813FD1F7F5CF822F869586958695089548
:101DB0006F927F928F929F92AF92BF92CF92DF925B
:101DC000EF92FF920F931F93CF93DF9389E4C82E76
:101DD00084E0D82E90E1E92EFF24F394E701C85D5A
:101DE000D10936011BC0F50185909490692DC80179
:101DF0000E947F2D682DC80101960E947F2D82E0F0
:101E0000A80EB11C0E5F1F4FC017D10761F782E10A
:101E1000680E711C6296CE15DF0529F08E01025105
:101E200011095301E0CF7E0188EDE80EF11C88ED29
:101E3000C80ED11C80E7E81684E0F80679F6DF9139
:101E4000CF911F910F91FF90EF90DF90CF90BF90B7
:101E5000AF909F908F907F906F900895682F86E04D
:101E600090E00C947F2D8091540381FF11C08D7FF1
:101E7000809354030E942E0F80916F008E7F809379
:101E80006F00809154038695869586950C940B0877
:101E900008958091540381FD10C0826080935403A3
:101EA0000E942E0F10920703109206031092050352
:101EB00080916F00816080936F000895CF93DF93CE
:101EC000C6E8D3E060E0CE010E947F2D2196C115C7
:101ED00084E0D807B9F7DF91CF910895CF93DF93CE
:101EE00000D00F92CDB7DEB790919D03943011F5DD
:101EF00089837B836A839093E9008FEF9091E80058
:101F0000815095FD06C095ED9A95F1F7000081117D
:101F1000F5CF8091E80085FF0DC050E040E063E020
:101F200070E0CE0101960E941E058091E8008E7738
:101F30008093E8000F900F900F90DF91CF9108955C
:101F4000BC0184E00C946E0FBC0183E00C946E0F16
:101F50009C0184E08093E9009FEF8091E80091501C
:101F600085FD06C085ED8A95F1F700009111F5CF4A
:101F70008091E80085FF0CC050E040E066E070E032
:101F8000C9010E941E058091E8008E778093E800C9
:101F90000895CF93DF93EC01809122018823B1F162
:101FA0008091200387FF32C060E284E08093E900E3
:101FB0008FEF9091E800815095FD06C095ED9A95C0
:101FC000F1F700008111F5CF8091E80085FF1BC07B
:101FD0008091220170E050E040E0811104C050E0A7
:101FE00040E068E070E0CE010E941E058091E800AC
:101FF0008E778093E80080E2FE01ABE7B3E00190CA
:102000000D928A95E1F7DF91CF91089568E081E024
:10201000CDCF81E08093E00080E28093D8001092E1
:10202000C9008FE19EE40197F1F700C0000087E04E
:1020300090EBDC018093AE039093AF03A093B003C9
:10204000B093B10388E19CE00FB6F894A895809313
:1020500060000FBE90936000FFCF8091570380FD1A
:102060000AC0E6EDF1E0118210821282339652E04E
:10207000E231F507C1F7239A35B1377F25B12860E2
:102080004FB7F89486ED91E0FC015191CF0168E0E3
:1020900025B9000000C057FF35B9550F000000C03A
:1020A00000C000C035B900C06A9591F7F2E08231F6
:1020B0009F0751F74FBF8FE594E00197F1F700C0FC
:1020C00000000895EF92FF921F93CF93DF93EC01EE
:1020D00086EDE82E81E0F82E10E08C81970140918A
:1020E0005A0360915903810F0E946108145F83E0D5
:1020F000E80EF11C103F89F70E942D109A818C8107
:1021000090FF08C08F5F8C83DF91CF911F91FF906C
:10211000EF9008958150F7CFBF92CF92DF92EF9268
:10212000FF920F931F93CF93DF93FC018281DD24F5
:10213000DA9480FD02C0DD24D39406ED11E0D0E0F6
:10214000C0E024E1B22EF80111821082128294E0E4
:10215000E92EF12CC12C8091D3018C0D85310CF42A
:102160003DC06B2D0E94B02C892F082E000C990BBE
:102170008C179D0791F480915A038E9DA0018F9D2D
:10218000500D1124559547955595479598016091A7
:102190005903809158030E946108CD0CF1E0EF1AB9
:1021A000F108C9F621960D5F1F4FC431D10559F6CC
:1021B0000E942D108091D30191E0D91215C0811198
:1021C00011C083E18093D301DF91CF911F910F91D3
:1021D000FF90EF90DF90CF90BF90089587FFC5CF1D
:1021E0008C5EC3CF8150EECF90E00196BE010E947D
:1021F000D22CE8CF0F931F93CF93DF93C6EDD1E09E
:10220000FE01118210821282339682E0E231F807D9
:10221000C1F710E000E08091D401082E000C990B6A
:10222000081719078CF180911001082E000C990BEA
:10223000801791074CF19E0140915A036091590318
:10224000809158030E9461080F5F1F4F239604314D
:10225000110509F70E942D1080910F019091D40172
:10226000980F9093D40120911001280F2093100112
:10227000121614F493311CF0819580930F01DF91B5
:10228000CF911F910F910895198218821A82DCCF85
:102290008F929F92AF92BF92CF92DF92EF92FF9276
:1022A0000F931F93CF93DF93EC014C81042F10E029
:1022B0009801D8010E94072E9B01AC010E94D22DEB
:1022C0004B015C01E0E2F0E0E01BF10BA5E5B0E0C2
:1022D000AC019B010E94D22D6B017C019F01DF01AB
:1022E0000E94F32C9B01AC010E94DD2D9B01AC01EF
:1022F000280D391D4A1D5B1DC701B6010E94E52D41
:10230000F22E822F90E039E23F15D8F143E0249F6E
:102310009001112435952795122F109596EDC92E11
:1023200091E0D92E00E085E5E82EEF188E2D01FD15
:102330008F2D9601412F609159030E9461080F5F14
:1023400053E0C50ED11C043189F70E942D109C81E9
:1023500081E0992319F0903219F48FEF80931101E5
:1023600080911101890F8C83DF91CF911F910F9183
:10237000FF90EF90DF90CF90BF90AF909F908F90A5
:10238000089525E530E0A901481B590BCA019A01BF
:10239000220F331F280F391F37FFBCCF2F5F3F4F4E
:1023A000B9CFEF92FF920F931F93CF93DF938C01DE
:1023B000C6EDD1E0F12CE12CF80194816091590334
:1023C00080915803FAE0EF16F104FCF49923F9F038
:1023D0009E0140915A030E9461082FEFE21AF20A0F
:1023E000239684E1E816F10439F70E942D10F801D4
:1023F000848190E00196817099278483DF91CF9149
:102400001F910F91FF90EF900895992309F39E017A
:1024100040E0E1CF9091570390FF0CC0E6EDF1E072
:10242000818360834283339692E0E231F907C1F7FA
:102430000C942D1008950F931F93CF93DF9300D02A
:102440000F92CDB7DEB78C018091D50181110AC002
:102450009E012F5F3F4F48EC6FEF0E9461088A8119
:102460008093D501F8016481613069F08091D501D4
:1024700040E0662361F040E0623011F44091D50104
:1024800080E060E004C06091D50140E080E00E94FF
:102490000A12F801848190E0019663E070E00E94E6
:1024A000D22C84830F900F900F90DF91CF911F91CA
:1024B0000F910895CF93DF9300D00F92CDB7DEB781
:1024C0009091570390FF0AC09E012F5F3F4F0E94DB
:1024D00061084B8169818A810E940A120F900F90D6
:1024E0000F90DF91CF910895CF93DF93EC01EC81B2
:1024F000F0E0E753FD4F4491E7E5F3E0628181812D
:102500000E945A128C818F5F8C83DF91CF91089546
:10251000CF93DF93EC01E7E5F3E0438162818C81A7
:102520000E945A128C818F5F8C83DF91CF91089526
:102530008F929F92AF92BF92CF92DF92EF92FF92D3
:102540000F931F93CF93DF9389E8E82E81E0F82E55
:1025500008E013E0E801A12CB12CCC24C394D12CC9
:10256000D7018D917D01F894E82FE295EF70F0E0AE
:1025700021A18F70A60102C0440F551F8A95E2F772
:10258000CA01922F982B91A392A18095892382A3AF
:10259000789400C0E5E9F1E030E020E0912C812C56
:1025A0004191A42FA295AF70B0E090968C9190E0ED
:1025B0004F7002C0959587954A95E2F780FD4AC015
:1025C000C601022E02C0880F991F0A94E2F7882ADA
:1025D000992A2F5F3F4F2930310511F7F7013197C5
:1025E00080810E94430C5BE0A51619F080EA8A9571
:1025F000F1F7888199818816990679F19982888204
:1026000081E0B82AA3942296ACE0AA12A9CFBB20FD
:1026100031F181E08093D2010E946D069093D10147
:102620008093D0018091D0019091D1010E945E06EB
:102630000697C8F0ECE5F3E080E293E0D8012D9135
:102640003D918D01219331938A179B07B9F7109221
:10265000D20109C090E080E0BACF80E0D2CF809173
:10266000D2018111DFCF8B2DDF91CF911F910F917F
:10267000FF90EF90DF90CF90BF90AF909F908F90A2
:1026800008954F925F926F927F928F929F92AF9236
:10269000BF92CF92DF92EF92FF920F931F93CF934F
:1026A000DF93FC016280448081E08483E9ECF2E006
:1026B0007490E8E4F3E0E491C2E1D2E036EDE32E79
:1026C00031E0F32E46E7C42E42E0D42E52E0A52E90
:1026D000BB24B39488248A94912C55245A94E719E6
:1026E0000E2F10E082E0861530F080915803888329
:1026F000809159038983411021C01B821A8297015E
:102700004A81698188810E946108259683E0E80EEC
:10271000F11CCC16DD0631F7DF91CF911F910F919F
:10272000FF90EF90DF90CF90BF90AF909F908F90F1
:102730007F906F905F904F900C942D108B81882329
:10274000E9F081508B83859DC00111246C8170E07C
:102750000E94BE2CFB01FF27E753FD4F8491E82F19
:10276000E719E59DC0011124B8010E94BE2C80919B
:102770005A03689FB00111247A83C1CF0E944E2D65
:1027800020915A03269521582A9DA0012B9D500D7A
:102790001124452F5527841795070CF0B0CF82E000
:1027A000861588F40E944E2DB4010E94D22C888395
:1027B0000E944E2D209159032695622F70E00E94B1
:1027C000D22C280F29831A8280915A03893C20F049
:1027D00088EC8C838B8393CF8431D8F784E1F9CF55
:1027E00090E080E00E94792D21E08B3E9E4F09F021
:1027F00020E0822F08956BEE7EEF90E080E00E9453
:102800009D2D60E082E090E00E947F2D60E083E0FB
:1028100090E00E947F2D109201031092020310920B
:1028200003031092040360E084E090E00E947F2D97
:1028300060E081E290E00E947F2D60E085E090E022
:102840000E947F2D60E086E090E00E947F2D6FEF78
:1028500087E090E00E947F2D40E050E0BA0188E0E0
:1028600090E00E94912D60E08DE090E00E947F2D2D
:1028700040E050E0BA0188E190E00E94912D60E0D4
:1028800087E190E00E947F2D40E050E0BA018CE1AA
:1028900090E00E94912D60E080E290E00E947F2D08
:1028A00040E050E0BA0188E190E00E94912D40E0C4
:1028B00050E0BA018FE090E00E94912D40E050E09E
:1028C000BA0183E190E00C94912D0E94F0138111E4
:1028D00002C00E94FB1386E090E00E946B2D809363
:1028E0005403803220F08770886180935403909164
:1028F0005403892F817090FF04C0892F8695869597
:1029000086950C940B08CF92DF92EF92FF926B01A9
:102910007C010E944B08B701A60188E090E0FF907F
:10292000EF90DF90CF900C94912D5F926F927F92F9
:102930008F929F92AF92BF92CF92DF92EF92FF92CF
:102940000F931F93CF93DF9300D00F92CDB7DEB7D5
:10295000182F762E042F622E9091570390FF29C0D6
:10296000E92FE695AE2FB0E0AD5DBE4F8C91809320
:1029700055039E7F923081F59E012F5F3F4F812F3F
:102980000E9461084B8169818A810E940A1210931A
:1029900058037092590300935A03662051F06091D6
:1029A0005703709158038091590390915A030E94E4
:1029B00083140F900F900F90DF91CF911F910F9183
:1029C000FF90EF90DF90CF90BF90AF909F908F904F
:1029D0007F906F905F900895823019F400915A03B0
:1029E000D6CF863019F410915803D1CF8930D9F35E
:1029F000893169F6E9518E2F8170582EE695F0E005
:102A0000EC53FD4FA590B490BB2486EDE82E81E0F9
:102A1000F82ED12CC12C94E1892E912CC601B40141
:102A20000E94BE2C812F511013C0860F9701402F9A
:102A3000672D0E946108CA0CDB1C83E0E80EF11CC4
:102A400082E1E81682E0F80649F70E942D109FCF38
:102A5000861BECCFE7E5F3E0438128E0421B08F456
:102A600040E021E0628181810C949514E7E5F3E078
:102A7000438128E0420F08F44FEF21E06281818119
:102A80000C949514E7E5F3E0628128E0621B08F4FA
:102A900060E021E0438181810C949514E7E5F3E047
:102AA000628128E0620F08F46FEF21E043818181A9
:102AB0000C949514E7E5F3E0818121E04381628184
:102AC00088500C949514E7E5F3E0818121E043817F
:102AD0006281885F0C94951480915B03882319F0C0
:102AE000815080935B0360915703709158038091EC
:102AF000590390915A030C94831480915B038330A3
:102B000018F48F5F80935B036091570370915803B3
:102B10008091590390915A030C948314E7E5F3E0F4
:102B200083E0808311828FEF828388EC8383148219
:102B300060817181828193810C9483141092FF02D1
:102B400080912201E2EBF1E0882359F0809120038B
:102B500087FF07C08EE1DF011D928A95E9F70C948B
:102B6000210986E0F8CF1F93CF93DF93CDB7DEB76F
:102B7000AA970FB6F894DEBF0FBECDBF8FE993E0E2
:102B80002091F100DC012D93CD01B3E0873A9B0742
:102B9000B9F78091A003833009F471C0B8F4813093
:102BA00009F448C0823009F4B2C08091E80083FF84
:102BB0003AC180919F039091A0039A3008F033C1ED
:102BC000E92FF0E0EA5DF14D0C94E62C8A3009F42F
:102BD0008DC08B3009F470C0893039F780919F0324
:102BE000813219F78091A3039091A403009711F00B
:102BF0000297D9F68091E800877F8093E800809162
:102C0000E80082FF37C09091F3008091F2000297B4
:102C100029F48091F1008B7F813021F48091F100C3
:102C200080937A038091E8008B778093E8000E947C
:102C30004805BBCF80919F03813A09F0B6CF8091C0
:102C4000E800877F8093E8008091A3039091A4031C
:102C5000892B61F460E28BE793E070E00E94FA0553
:102C60008091E8008B778093E8009FCF60E090E050
:102C700080E0F3CF80919D038111C1CF96CF8091E9
:102C80009F03813A09F091CF8091A3039091A4030F
:102C9000892B09F08ACF8091E800877F8093E80034
:102CA0008091E80080FFFCCF809122018093F100A9
:102CB0008091E8008E77B9CF80919F03813209F02F
:102CC00074CF8091A3039091A403892B09F06DCF59
:102CD0008091E800877F8093E8000E9448058091FA
:102CE000A103809322010E949E155FCF80919F03D4
:102CF000813209F05ACF8091E800877F8093E80005
:102D00000E9448058091A203809379034ECF809161
:102D10009F03813A09F049CF8091E800877F809333
:102D2000E8008091E80080FFFCCF80917903BECF5E
:102D3000803899F0823809F076C08091A3038F70B3
:102D4000873008F070C08093E9008091EB0085FB2C
:102D5000882780F91092E90006C080919B0390912A
:102D60009C03911182609091E800977F9093E80016
:102D70008093F1001092F1008091E8008E77B5C148
:102D8000882309F4A2C1823009F04DC08091A103CB
:102D90008111A6C18091A3038F702FEF280F2630D9
:102DA00008F041C08093E9002091EB0020FF98C11A
:102DB000933031F48091EB0080628093EB0090C1FE
:102DC0009091EB0090619093EB0021E030E001C026
:102DD000220F8A95EAF72093EA001092EA00809188
:102DE000EB008860EACF81111EC01091A1031F770C
:102DF0008091E3008078812B8093E3008091E8004C
:102E0000877F8093E8000E9448058091E80080FF5A
:102E1000FCCF8091E30080688093E30082E0111191
:102E200083E080939D038091E80083FF0AC0809136
:102E3000E800877F8093E8008091EB0080628093B8
:102E4000EB00AA960FB6F894DEBF0FBECDBFDF91A0
:102E5000CF911F9108958058823028F72091A103C7
:102E60003091A2032C3DE3E03E07A1F583E08A8385
:102E70008AE289834FB7F894DE01139620E03EE0A2
:102E800051E2E32FF0E050935700E49120FF03C09C
:102E9000E295EF703F5FEF708E2F90E0EA30C0F068
:102EA000C7968D939D932F5F243159F74FBF809123
:102EB000E800877F8093E8006AE270E0CE01019627
:102EC0000E94FA058091E8008B778093E800ABCFF1
:102ED000C096E7CF8091A3039091A403432F552779
:102EE0004330510509F44AC078F54130510509F4E1
:102EF0007AC08BE590E0EEE6F8E04230510509F04B
:102F000092CF2091E800277F2093E8002091A5032D
:102F10003091A6038217930708F49C0140E0211525
:102F2000310509F065C0411163C08091E80082FD60
:102F3000C9CF80919D03882329F2853019F28091B1
:102F4000E80083FFF2CFBECF4132510509F43CC007
:102F50004232510509F067CF8330910508F063CF05
:102F6000FC01EE0FFF1FEF55FE4F0190F081E02DA9
:102F700082569E4FDC018C9190E01AC0332721309D
:102F80003105D1F02115310561F02230310509F00C
:102F90004ACFEBEDF8E0E4918E2F90E0EBEDF8E016
:102FA00007C0E5E0F9E0E4918E2F90E0E5E0F9E07C
:102FB000009709F438CFA5CFEDEEF8E0E4918E2F1D
:102FC00090E0EDEEF8E0F4CF8330910508F02BCFE0
:102FD000880F991FFC01E955FE4F0190F081E02D0B
:102FE00089E090E08ECF82E190E0E9ECF8E089CFD3
:102FF00080919D03882309F465CF853009F462CF61
:103000008091E80083FD5ECF8091E80082FD8DCF46
:103010008091E80080FF83CF9091F3008091F200CF
:103020002115310519F08830910550F041E00897DD
:1030300009F040E08091E8008E778093E8006FCF40
:1030400044914093F1003196215031090196E8CF27
:10305000803809F0E8CE8091E800877F8093E8000F
:1030600080919E038093F10087CE8111DCCE109178
:10307000A103123008F0D7CE8091E800877F8093BB
:10308000E80010939E030E944805112311F084E08C
:1030900005C08091E30087FDFACF81E080939D0316
:1030A00042E061EC81E00E94670542E261EC84E06D
:1030B0000E94670542E261EC82E00E94670542E2FD
:1030C00060EC83E00E946705AECE8091A103813061
:1030D00009F0A9CE81E0933009F080E080939C0351
:1030E0001092E9008091E800877F8093E8000E94B9
:1030F000480599CE0F931F9341E050E060E070E0E7
:103100008A019B0104C0000F111F221F331F8A95E3
:10311000D2F7C901B8010E94C0091F910F910C9408
:103120009E15EBEFE80FEF3308F064C0F0E0E05DD0
:10313000F14D0C94E62C0E94FB1381E008958091E0
:103140003B03807F80933B0381E080937C02089562
:103150000E949E152FEF84E39CE021508040904018
:10316000E1F700C000000E94091090913B03892FF5
:103170008E7F90FF816080933B0380FDDECF817F57
:1031800080933B03DACF90913B03892F8D7F91FF92
:10319000826080933B0381FFD0CF80913B038160AD
:1031A000EFCF90913B03892F8B7F92FF84608093B8
:1031B0003B0382FDF2CFC1CF90913B03892F877FE4
:1031C00093FF886080933B0383FDE7CFB6CF0E94D7
:1031D0009E1590912003892F97FB87F98058809343
:1031E0002003ABCF80E00E947A18A7CF8953FBCF92
:1031F0008D51F9CF80E00895CF93C82F882309F42B
:10320000A9C08238C1F40E94C20781FDA3C089E32E
:103210000E94EF060E947F062FEF81EE94E021507E
:1032200080409040E1F700C0000089E30E94C4069E
:10323000CF910C947F068338A1F40E94C20780FDD1
:1032400089C083E50E94EF060E947F062FEF81EE82
:1032500094E0215080409040E1F700C0000083E5F9
:10326000E5CF8438A1F40E94C20782FD73C087E4D1
:103270000E94EF060E947F062FEF81EE94E021501E
:1032800080409040E1F700C0000087E4CFCF8CEF92
:103290008C0F813A08F0B1C080917C028130B9F185
:1032A000882359F1823009F44DC010927C0280913C
:1032B0002201882309F492C08091200387FF8EC0E9
:1032C000EC2FE695E695E695F0E0E055FE4F82811D
:1032D00090E04C2F477021E030E002C0220F331FF6
:1032E0004A95E2F782239323892B09F482C08C2F1D
:1032F0000E94C4060E947F067CC08091FF02823239
:10330000B1F68C2F0E949118811124C0D0CF8091EA
:10331000FF028232B1F3C43171F038F4CB3049F09E
:10332000C03161F080E08170EFCFC93221F0C83345
:10333000C9F781E0F8CF10927C02F4CF82E080934D
:103340007C02F7CFC93221F190F4C43109F120F4A5
:10335000C73089F1CF910895CE51C630D8F7EC2F00
:10336000F0E0E25BFE4F808180937B02F3CFCE34AE
:1033700001F140F46AE0CB3469F780917B02CF9190
:103380000C94CD0BC13579F061E0C235B1F3E2CFD9
:1033900080917B02882319F010927B02DBCF81E0C1
:1033A00080937C02D7CF61E080917B02CF910C9417
:1033B0007D0B6AE0F9CF8EE18093160182E3809362
:1033C00017018AE08093150184E18093140188E05D
:1033D0008093130188E280931201BCCFE2EBF1E00D
:1033E00088EB91E02191C21709F481CF8E179F07D6
:1033F000C9F78C2F0E94EF061BCF80E28C0F88301C
:1034000068F4C77021E030E001C0220FCA95EAF7E6
:103410008091FF02822B8093FF020ACFEBE5EC0F35
:10342000E33040F4F0E0E85AFE4F808190E0CF9125
:103430000C94AC07E8E5EC0FE73150F4F0E0EE0F48
:10344000FF1FE55AFE4F80819181CF910C94960722
:10345000CD3E08F47FCF8C2F0E94230BCF910C948C
:10346000FA081F93CF93DF93182FD0E0C0E0893381
:1034700011F4C0E5D0E0812F0E94FC18209731F4B0
:10348000812FDF91CF911F910C94430A8FE99FE028
:103490000197F1F700C000002197F0CF0F931F9321
:1034A000CF93DF93C62FD42F022FFC018281882374
:1034B000A1F06093A9030E946D069093A8038093E6
:1034C000A703C77081E001C0880FCA95EAF7DF91B2
:1034D000CF911F910F910C948C078091A9036813D1
:1034E00035C08091A7039091A8030E945E06883C96
:1034F000910560F510E21D0FCD17B9F080E28C0F39
:10350000883040F4C77081E001C0880FCA95EAF79F
:103510000E948107183048F481E09D2F977001C008
:10352000880F9A95EAF70E948C07802F0E94311A23
:10353000183098F4D77081E001C0880FDA95EAF767
:10354000DF91CF911F910F910C948107C77081E09B
:1035500001C0880FCA95EAF7F3CFDF91CF911F9191
:103560000F91089560915703669570E04BE050E02D
:1035700084E091E00E945E2D892B19F481E0809314
:1035800056030E946D0690932903809328030895A3
:103590009091570390FF36C09170811129C09260BD
:1035A00090935703662351F060915703709158032D
:1035B0008091590390915A030E948314609157039C
:1035C000669570E04BE050E084E091E00E945E2D53
:1035D000892BA9F01092560381E080932B0320E001
:1035E00040915A0360915903809158030C949514AB
:1035F0008B3210F09465D4CF880F982BD1CF0E94D6
:10360000B21AEACF0895809157038695815009F444
:103610008AE261E00C94C81A8091570386958F5F07
:103620008B3208F081E061E00C94C81A9091570346
:1036300090FF07C09695981720F0961710F40C94F9
:103640000C1B61E00C94C81A3F924F925F926F92EC
:103650007F928F929F92AF92BF92CF92DF92EF9222
:10366000FF920F931F93CF93DF9300D000D00F9260
:10367000CDB7DEB78C01FC0183819481892B31F0B9
:103680008081918189238F3F09F050C60F900F9060
:103690000F900F900F90DF91CF911F910F91FF909E
:1036A000EF90DF90CF90BF90AF909F908F907F90E2
:1036B0006F905F904F903F9008950E94680EF82E93
:1036C000682F89819A810E944B0769817A818F2DA9
:1036D0000E94D10C7C01F8019281992309F4FBC569
:1036E000970122513F452031310508F0DDC58FEFAC
:1036F00093E00E946B2DFEEEEF0E56E8852E53E010
:10370000952E882381F18091FC02877009F4BECF49
:10371000F8018281882309F4B9CF82E00F900F90DD
:103720000F900F900F90DF91CF911F910F91FF900D
:10373000EF90DF90CF90BF90AF909F908F907F9051
:103740006F905F904F903F900C948709811424E014
:103750009206C9F2C4010E946B2D811101C0EA9446
:103760003FEF831A930AE110F1CF1C821B8244249D
:1037700043944AE0342E74018FEFE81AF80AC4012A
:103780000E946B2D89831A82882309F4BCCF9FEF96
:10379000980F933000F58A83498292E0890E911C3C
:1037A000C7010E946B2D8B83882309F4ACCFFE01E7
:1037B00031967F01F70120812223E9F2213009F0BF
:1037C00049C091818281913041F4F2E0EF0EF11C09
:1037D0000E94311A09C04701EACF923049F422E031
:1037E000E20EF11C0E94FC183FEFE31AF30AE2CF4D
:1037F000933031F432E0E30EF11C0E94430AF4CF1F
:10380000943021F08FEFE81AF80AEECF92E0E90E3B
:10381000F11C30E020E0B7016F5F7F4FF70141817D
:103820008053990B8A30910550F021503109E0F214
:103830008FE99FE00197F1F700C00000F6CF329EBC
:10384000F001339EF00D11249C012E0F3F1F842F99
:103850007B01E1CFE22FF0E0E752F84F5490822F46
:1038600086958695869590E0FC01E753F84F649025
:103870002770712C022E02C0759467940A94E2F7A7
:10388000E1E06E227724FC01E754F84FA490B12CBC
:10389000022E02C0B594A7940A94E2F7F1E0AF2299
:1038A000BB24FC01E755F84FC490D12C02C0D5943D
:1038B000C7942A95E2F721E0C222DD246114710445
:1038C00019F081EE0E94FC18A114B10419F086EEE3
:1038D0000E94FC18852D0E94311AAB2819F086EE43
:1038E0000E94430A672819F081EE0E94430ACD28FE
:1038F00009F47ACF8CE26CCF81E00E949F090E948C
:10390000480901CF81E00E946409F9CF82E0F5CF38
:1039100082E0F9CF83E00E943008809154030E9436
:103920002E0FF1CE80E0F7CF80915403982F987F2F
:1039300079F0885080935403887F91E009F490E0F7
:103940008091540390FB80F9809354030E942E0FC2
:10395000809154038695869586950E940B08D3CE58
:1039600080915403982F969596959695933040F4B0
:103970009F5F990F990F990F8770892B809354033C
:10398000809154038160E0CF8091540380FF07C091
:103990008E7F809354030E942E0F80E0DECF80FD47
:1039A000B2CE816080935403813019F489E0809312
:1039B000540380915403CACF90915403892F869564
:1039C000869586958F5F8F719770843048F4880F45
:1039D000880F880F892B8093540380915403ACCFB8
:1039E00090935403FACF8091540381FF03C00E9447
:1039F000330F89CE0E94490F86CE27E245EE65EE51
:103A000091C426E241EE60EE8DC427E245EE64EEFD
:103A100089C426E241EE62EE85C428E241E0EFCFA0
:103A200080912003806136E0E3163CE5F30609F45B
:103A300091C008F496C08091200380628BC0809171
:103A400020038D7F9CE0E9169CE5F90609F482C00D
:103A500078F4809120038C60FAE0EF16FCE5FF0615
:103A600009F478C008F489C0809120038E7F72C069
:103A700080912003877F3EE0E3163CE5F30609F4DE
:103A800069C008F480C0809120038F7E63C09CEFE2
:103A9000E9169CE5F90609F468C068F5F3E1EF164C
:103AA000FCE5FF0609F47FC090F431E1E3163CE544
:103AB000F30609F474C082E1E8168CE5F80609F013
:103AC000C9C40E949E15809120038F7743C095E161
:103AD000E9169CE5F90609F46EC008F482C08091ED
:103AE00021038160FBEFEF16FCE5FF0609F0B2C48D
:103AF00080932103AFC4E1142DE5F20609F457C009
:103B000090F48EEFE8168CE5F80609F440C0809139
:103B100021038E7F9FEFE9169CE5F90648F380911B
:103B200021038360E5CFE2E0EE16EDE5FE0609F441
:103B300061C008F44CC060E023E0E2162DE5F20617
:103B400009F088C48EE090E00E947F2D83C48091AC
:103B500020038160809320037DC4809120038460D2
:103B6000F9CF809120038860F5CF80912103826096
:103B7000BFCF809120038064EDCF0E949E1580917D
:103B800020038068E7CF809120038B7FE3CF809173
:103B900021038D7FADCF809120038F7DDBCF80917E
:103BA00020038F7BD7CF80912003837FD3CF809159
:103BB00021038C7F9DCF8091200382FB992790F970
:103BC00021E0922790FB82F990FB83F9C3CF80918B
:103BD0002103982F909591708E7F892B90FB81F90E
:103BE00087CF0E949E1590912003892F97FB87F91C
:103BF0008058B0CF61E0A6CF8091FF0236E1E31696
:103C00003CE5F30609F0A3C38A7A91E009F490E059
:103C100090937A02811106C089E20E94EF060E9409
:103C20007F0671CD85E3F9CF85E3B6C38091570355
:103C300080FF1BC08E7F8093570360915703709164
:103C400058038091590390915A030E948314109253
:103C500056038FEF90E7E2E081509040E040E1F7BB
:103C600000C000000E942D104ECD8160809357034C
:103C700061E086950E94C81A46CD43E05BE16CE0A6
:103C80007BE10E9446083FCD4CE05BE163E07BE1D5
:103C9000F8CF4AE555E163E675E1F3CF43E655E138
:103CA0006AE575E1EECF42E455E16EE475E1E9CFF6
:103CB0004EE455E162E475E1E4CF4AE255E166E3A2
:103CC00075E1DFCF46E355E16AE275E1DACF4CE614
:103CD00055E16DE775E1D5CF4DE755E16CE675E14E
:103CE000D0CF61E081E0C6CF65E082E00E94161B84
:103CF0000ACD68E086E0FACF6EE089E0F7CF64E1B4
:103D00008FE0F4CF67E185E1F1CF61E088E1B2CFE8
:103D100062E289E1EBCF61E083E2ACCFE114FCE544
:103D2000FF0609F447C02FEDE2162CE5F20609F470
:103D30004EC0F801E080F180992309F44BC0C7011F
:103D40000E94680ED82E682FC7010E944B07B7014A
:103D50008D2D0E94DE0C7C01882EF801D280A5807A
:103D6000A2943FE0A3228091FC028770A1F0CD2CA9
:103D7000DD2091F08F2D807F803421F080E28E0D48
:103D8000883048F082E00E9487098091FC028770A9
:103D9000CC24C3948111C12C3F2C32942FE03222C9
:103DA000FBE0F31508F452C0E32DF0E0E159F14DCA
:103DB0000C94E62C0E949E153FEF84E39CE031506A
:103DC00080409040E1F700C000000E9409100E946E
:103DD000FB1399CCC7010E942307D82EB8CF2F2DF3
:103DE0002F70A22E8F2D807F19F0A29490EFA92220
:103DF000DD20C9F0AA2069F080E28E0D883010F035
:103E000081100BC08091FF02A82AA092FF020E949D
:103E10007F068E2D0E94FC1819C08091FE02A82AF0
:103E2000A092FE02F4CF8E2D0E94430AAA2071F0C8
:103E3000A09480E28E0D883010F081103DC08091FA
:103E4000FF02A822A092FF020E947F06232D285085
:103E5000330B2430310510F40E94C207CC2009F442
:103E600015CC8091FC0280FD11CCF8011282859561
:103E7000859585950E949F09C8010E94241B809109
:103E8000FC028595859585950F900F900F900F906A
:103E90000F90DF91CF911F910F91FF90EF90DF90E6
:103EA000CF90BF90AF909F908F907F906F905F90DA
:103EB0004F903F900C9464098091FE02A822A0923A
:103EC000FE02C2CF3F2D3F70932E8F2D807F803218
:103ED00019F0929480EF9822882071F081E0881682
:103EE00061F1DD20B9F1AA2071F1F801858180FF2F
:103EF00090CF8F70858327C0DD2091F090910003D3
:103F0000892D892BA11003C00E948C079FCFE1E06F
:103F1000AE12FACF981709F499CF8093000396CF89
:103F2000A11006C00E947906892D0E9481078ECFBC
:103F3000F1E0AF1609F48ACFF5CFDD2031F025E0AE
:103F40002A1508F483CF892DDFCF34E03A1508F421
:103F50007DCFEACFAA2041F3F9E38F1209C02FEFFA
:103F600037EE83E0215030408040E1F700C0000090
:103F70008E2D0E94430A6ACF8F2D86958695837079
:103F800061F0813009F062CFC7019370D11002C097
:103F900090E080E00E94960759CFC7019370D1103E
:103FA00002C090E080E00E94AC0750CF8E2DDD2053
:103FB00029F00E94230B0E94FA0848CF0E94CA09E8
:103FC000FACF8F2D837009F066C0D1103FCF8E2DB0
:103FD000829586958770880F880F6E2D6F70462E9C
:103FE000512C712C612C082E04C0440C551C661CED
:103FF000771C0A94D2F740E050E0BA01E4FE0FC00B
:104000004FE050E060E070E004C0440F551F661FB1
:10401000771F8A95D2F740955095609570958F2DB2
:10402000869586958370823019F1D8F480900103CB
:1040300090900203A0900303B0900403813069F0D4
:104040004429552966297729CB01BA0168217921AC
:104050008A219B210E94C009F9CE482859286A2844
:104060007B28CB01BA016429752986299729F2CFCB
:10407000442955296629772940900103509002036D
:104080006090030370900403CB01BA016425752589
:1040900086259725DFCF8695DD2011F08F2D817045
:1040A000882309F4D3CE8E2D829586958770880F4C
:1040B000880F6E2D6F70462E512C712C612C082E9E
:1040C00004C0440C551C661C771C0A94D2F740E0CF
:1040D00050E0BA01E4FE0FC04FE050E060E070E055
:1040E00004C0440F551F661F771F8A95D2F740956D
:1040F0005095609570958F2D86958695837082304A
:1041000019F1D8F48090AA039090AB03A090AC036F
:10411000B090AD03813069F044295529662977298B
:10412000CB01BA01682179218A219B210E943E0995
:104130008DCE482859286A287B28CB01BA016429EA
:10414000752986299729F2CF442955296629772987
:104150004090AA035090AB036090AC037090AD0305
:10416000CB01BA016425752586259725DFCF9F2DC4
:104170009F70F92EDD2029F0892F0E949F098E2D36
:10418000C3CE8E2D0E9481078F2D0E9464095ECEC2
:104190008E2DE2EF8E1609F453C0E81578F0F0EF9B
:1041A0008F1629F121EF821609F442C0DD2009F4AF
:1041B0006BC0A1102ECE8F2D8F713FC033EF8316B1
:1041C00009F443C094EF8912F1CFDD2009F451C006
:1041D0002F2D2F71F22E822F0E949F0938E0F39E1F
:1041E000C001112483608093FC028F2D26C0DD2046
:1041F000D1F0E4E0EA1508F429CE2F2D2F7161E00B
:1042000070E080E090E004C0660F771F881F991F60
:104210002A95D2F74090AA035090AB036090AC036C
:104220007090AD039FCFF5E0FA1508F40FCEE5CFFF
:104230008F2D8F71DD2009F4A8CF0E949F0906CE33
:104240008F2D8F71DD20C9F3A0CF60E070E0CB012E
:10425000DD2009F46BCF2F2D2F7161E070E080E03D
:1042600090E004C0660F771F881F991F2A95D2F728
:104270005DCF81E00E94870981E08A1508F0E6CDD4
:1042800082E00E948709E2CDAA2059F0893309F023
:104290006FCE9FEFE7EEF3E09150E040F040E1F7A2
:1042A00065CE8F2D8F7171CFF0E1EF16FFE5FF0620
:1042B00009F422CB21E1E2162FE5F20609F426CB20
:1042C000F701EC5BFC45E730F10508F068C0E55804
:1042D000F14D0C94E62C30E1E3163FE5F30609F4CA
:1042E00011CB81E1E8168FE5F80609F411CB24EF34
:1042F000E2162CE5F20609F484CBA8F589EDE81660
:104300008CE5F80609F479CBEAEDEE16ECE5FE064D
:1043100009F483CBF8EDEF16FCE5FF0691F526E2F4
:1043200041EE61EEC8010E944E1AEDC985E0DE0142
:10433000119601900D928A95E1F7F8012281898109
:104340009A812111BAC90E942307F82EBEC9827230
:10435000F701E35CFC45E431F10508F0DFCCEE57F2
:10436000F14D0C94E62C26EFE2162CE5F20609F44A
:1043700050CB08F44ACB87EFE8168CE5F80609F431
:1043800087C0F6E1EF16FCE5FF0609F0D2CC80917C
:104390007A02811149CC89E20E94C40640CCE4EF44
:1043A000EE16ECE5FE0609F42CCB08F063C029ED0F
:1043B000E2162CE5F20609F420CB3AEDE3163CE5D3
:1043C000F30609F42ACB88EDE8168CE5F80609F423
:1043D000A6CF1092A90382E0E8168CE5F80608F44F
:1043E0000BCCE6E1EE16ECE5FE0638F097012B5F0C
:1043F0003C452930310508F0FFCB0E949D0C90937D
:10440000210380932003F0E1EF16FCE5FF0609F499
:10441000C2CB08F03CCB38E0E3163CE5F30609F4E8
:10442000A8CB08F00CCB94E0E9169CE5F90609F45A
:1044300094CB08F0F5CAF2E0EF16FCE5FF0609F4AC
:1044400086CB80912003826023E0E2162CE5F20601
:1044500009F480CB60912003F090210384E090E088
:104460000E947F2D6F2D81E290E00E947F2D0E949F
:104470009E1549C9E6EFEE16ECE5FE0609F4C9CA39
:1044800008F4C3CA27EFE2162CE5F20609F0A1CF23
:1044900027E245EE66EE46CF1F93CF93DF938091E0
:1044A0008302807FA9F480918002882389F0809123
:1044B000B502D091840260917E0270917F02A0913A
:1044C0008102B0918202C62FC72316E0D81304C020
:1044D000DF91CF911F91089590E0109711F0CF3F99
:1044E00019F401968770F2CF189F9001199F300D33
:1044F0001124F901EB57FD4F41814713F2CF408161
:104500004613EFCF42814111ECCF438154814A1BC6
:104510005B0B483C510528F7809183028F708061C6
:1045200080938302F901E657FD4F80818F7080618F
:1045300080838EE792E00E94241BDF91CF911F9130
:104540000C947707AF92BF92CF92DF92EF92FF92D7
:104550000F931F93CF93DF93CDB7DEB761970FB65D
:10456000F894DEBF0FBECDBF8C0185E0F801DE01FF
:104570001D9601900D928A95E1F7F8018081918155
:10458000E2802EE7A22E22E0B22E6091810270918D
:1045900082026115710509F43EC130917E0240919D
:1045A0007F02232F24232F3F09F435C1C380D480F9
:1045B000F0908002F601E61BF70BFF2009F4FBC028
:1045C00020918302522F507FE83CF10508F0BBC0D8
:1045D000511178C0FE2C491321C038131FC0E110BF
:1045E0001DC02F70206120938302C5010E94241BEF
:1045F00080918302F80185838F2D61960FB6F89420
:10460000DEBF0FBECDBFDF91CF911F910F91FF9005
:10461000EF90DF90CF90BF90AF900895CD2829F014
:10462000282F29232F3F09F014C120E0F22FF17029
:10463000DF2E20FF3DC02091B5024091840256E05C
:10464000241315C08D879E878D859E850E94AA0E96
:10465000292F22952F702230F8F0243020F59F70FA
:10466000F9F0F8019581907FD9F4D12C1FC030E08A
:10467000529FF001539FF00D1124EB57FD4F6181C4
:10468000961306C06081861303C06281E61210C0D3
:104690002F5F3F4F2770D4CF9F7011F0882329F3ED
:1046A000805E883010F3C8010E94241BFD2CA4CF2B
:1046B000EE2009F4A1CF8091830281608093830270
:1046C000F12C9ACF491312C0381310C0E1100EC05C
:1046D000F8012583C8010E94241B86E0F801AEE79B
:1046E000B2E001900D928A95E1F786CF8D879E8783
:1046F0008D859E850E94B40E882309F1EE20F9F085
:1047000080918302803270F020917E0230917F028E
:1047100038872F831986DB86CA868C87CE01079659
:104720000E94241B86E0F801AEE7B2E001900D92F2
:104730008A95E1F70E944C22FF24F3945DCFC801D3
:104740000E94241BF9CF51110AC08EE792E00E940B
:10475000241B86E0F50111928A95E9F7B1CF491340
:104760000FC038130DC0E1100BC0F8012583C8013C
:104770000E94241B86E0F50111928A95E9F73CCF4F
:104780008D879E878D859E850E94B40E8823B9F201
:10479000EE20A9F280918302803220F220917E02E5
:1047A00030917F023A8329831B82DD82CC828E8303
:1047B000CE010196B5CFE83CF105E0F6FE2CEE20E7
:1047C00009F4BDCF491316C0381314C08091830279
:1047D00080FD83CF982F907F09F47FCFF8018583E8
:1047E000903F09F477CF982F907F905F8F70892B3F
:1047F000858370CF8D879E878D859E850E94B40EA0
:10480000811190CF80918302816080938302C801DF
:104810000E94241BF1CEEE2009F491CF8D879E8754
:104820008D859E850E94B40EF82E882309F487CFCB
:1048300086E0F801AEE7B2E001900D928A95E1F7CB
:1048400080917E0290917F020E94AA0E0E944C22CB
:10485000D3CE21E02E25EACE1F93CF93DF93CDB7A1
:10486000DEB767970FB6F894DEBF0FBECDBF342F0B
:104870004B8B252F5C8B6D8B7E8B8F8B8E899F89CD
:1048800061111092FE021A8A198A3D872E876F875E
:10489000998B888B86E0FE013D96DE01179601908C
:1048A0000D928A95E1F7CE0107960E94A2228823F5
:1048B00089F016E08091B50290918402891349C075
:1048C00067960FB6F894DEBF0FBECDBFDF91CF91D4
:1048D0001F91089586E0FE013796DE011196019042
:1048E0000D928A95E1F78A859B85892B11F38F813B
:1048F000988589238F3FE9F22091840230E0C90135
:104900000196877099274091B5024817190671F4EE
:104910000E949E15109284021092B50286E0EEE786
:10492000F2E0DF011D928A95E9F7C3CF96E0929FEE
:10493000D001939FB00D1124AB57BD4FFE013196AE
:1049400001900D929A95E1F7809384020E94770777
:10495000B0CF819FC00111248B579D4F0E94A2228E
:10496000882309F4ADCF8091B50290E0019687705D
:1049700099278093B5029ECF1F920F920FB60F9288
:1049800011242F933F934F935F936F937F938F9354
:104990009F93AF93BF93CF93DF93EF93FF93D09108
:1049A000E900DF708091EC00C82FC17080FDC0E885
:1049B0001092E9008091F000877F8093F000789456
:1049C0000E94B3151092E9008091F00088608093F6
:1049D000F000CD2BCF70C093E900FF91EF91DF91F4
:1049E000CF91BF91AF919F918F917F916F915F9187
:1049F0004F913F912F910F900FBE0F901F901895E0
:104A00001F920F920FB60F9211242F933F934F9343
:104A10005F936F937F938F939F93AF93BF93EF9326
:104A2000FF938091E10082FF09C08091E20082FF44
:104A300005C08091E1008B7F8093E1008091DA00D6
:104A400080FF24C08091D80080FF20C08091DA00D0
:104A50008E7F8093DA008091D90080FF9BC080E137
:104A600089BD82E189BD09B400FEFDCF81E080935C
:104A70009D0380917803811109C00E94CE040E9499
:104A800099058091E20084608093E2008091E100CA
:104A900080FF17C08091E20080FF13C08091E20088
:104AA0008E7F8093E2008091E20080618093E2003B
:104AB0008091D80080628093D80019BC85E08093F3
:104AC0009D038091E10084FF29C08091E20084FF72
:104AD00025C080E189BD82E189BD89B5982F91709B
:104AE00080FFFBCF8091D8008F7D8093D80080918C
:104AF000E1008F7E8093E1008091E2008F7E8093C1
:104B0000E2008091E20081608093E20080919E0348
:104B1000882309F445C084E080939D038091E100DF
:104B200083FF27C08091E20083FF23C08091E100D2
:104B3000877F8093E10082E080939D0310929E0323
:104B40008091E1008E7F8093E1008091E2008E7F72
:104B50008093E2008091E20080618093E20042E075
:104B600060E080E00E9467058091F000886080939B
:104B7000F000FF91EF91BF91AF919F918F917F9145
:104B80006F915F914F913F912F910F900FBE0F90BA
:104B90001F90189519BC10929D031092780376CF40
:104BA0008091E30087FD93E090939D03B7CFCDB74D
:104BB000DEB7AA970FB6F894DEBF0FBECDBF84B79D
:104BC000877F84BF0FB6F894A895809160008861B4
:104BD00080936000109260000FBE80E890E00FB6F6
:104BE000F89480936100909361000FBE85B7806850
:104BF00085BF85B7806885BF89E596E09093AF0152
:104C00008093AE010E94CE040E9499058091E2003B
:104C100084608093E200789480919D038823A1F0C2
:104C20001091E9001F709091EC00892F817090FD28
:104C300080E8182B1092E9008091E80083FD0E9423
:104C4000B3151F701093E90082E084BD93E095BD19
:104C50009AEF97BD80936E0009E811E0F5E9EF2E19
:104C6000F1E0FF2EF80181918F010E94430CE016C4
:104C7000F106C1F705E911E0EEE9EE2EE1E0FE2EC6
:104C8000F80181918F010E94430CE016F106C1F7F3
:104C9000E8E0F3E080E293E0ACE5B3E0119211923A
:104CA0001D921D928E179F07C9F70E9498128FE3DD
:104CB0009CE90197F1F700C000000E9498128091D2
:104CC0005C0380FF17C06FEF82E290E00E947F2DAF
:104CD0006FEF83E290E00E947F2D6FEF84E290E01F
:104CE0000E947F2D6FEF7FEF90E080E00E949D2D6E
:104CF0000E9409100E94F013811102C00E94FB1350
:104D0000279A2F988AE08093800089E18093810020
:104D10008FEF9FEF90938700809386000E94651429
:104D20008091540381FF0BC0109207031092060379
:104D30001092050380916F00816080936F0082E282
:104D400090E00E946B2D823209F017C583E290E05B
:104D50000E946B2D823009F010C584E290E00E9421
:104D60006B2D803109F009C50E94F013811102C03A
:104D70000E94FB1382E090E00E946B2D80933B0326
:104D80000E949D0C909321038093200383E090E088
:104D90000E946B2D682F70E090E080E00E94C009B7
:104DA0000E94651480912203811133C00E94F01388
:104DB000811104C00E94FB130E948E1588E090E0D0
:104DC0000E94732D60935703709358038093590387
:104DD00090935A036E7F71F40E948E1588E090E0E4
:104DE0000E94732D60935703709358038093590367
:104DF00090935A030E944B081092560380915703D8
:104E000080FF04C060E086950E94C81A81E080930C
:104E1000220388E191E0909324038093230358E1D7
:104E2000E52EF12C60E4B62E74E7C72E73E0D72E82
:104E300080919D039924939400E112E1853009F457
:104E4000A2C10E949812882359F08FB7F89440911C
:104E500074035091750360917603709177038FBF4F
:104E6000ECE3F3E0ACE5B3E010E000E0702F8D91EF
:104E70009D91219131912817390709F4A7C128275D
:104E8000392760E088248394912CA9014821592175
:104E9000452B09F495C169A37AA39C0128213921E6
:104EA00091E0232B09F490E09BA30E946D068160A2
:104EB000782F9DA38CA349A15AA16BA18DA10E941B
:104EC0002C24000F111FF801E45CFC4F80819181BC
:104ED0008826992691828082809156038823D1F179
:104EE00080915503E0915703E695E81BE0932A0370
:104EF000823009F082C1F0E0E659F74FE4910E2FBD
:104F000010E084E7882E82E1982E80912B0388237D
:104F100061F010922B030E946D06909329038093F9
:104F2000280310922D0310922C030E946D06E0912D
:104F30002803F09129038E1B9F0B8F3F9F4750F44E
:104F4000E00FF11FF0932903E093280388E293E038
:104F5000F401099586E0E4E3F3E0DE0111960190A7
:104F60000D928A95E1F78090360390903703109167
:104F700038030091390310923603109237031092D0
:104F8000380310923903882D892991F080913203DA
:104F9000909133030E945E06AC01909131039923F6
:104FA00009F497C1809117018417150608F49FC171
:104FB000812F802B09F448C080912F0390913003FA
:104FC0000E945E069C0190912E03992309F4F7C379
:104FD00025363105C8F19F3F19F09F5F90932E034E
:104FE000112359F00E94A00A9FEF11160CF491E0D2
:104FF000899F802D112480933803002359F00E944B
:10500000A00A9FEF10160CF491E0899F802D1124C7
:1050100080933903309138033323B1F02091390361
:10502000222391F045EB3403C0011124992309F4A4
:105030009DC19093380345EB240390011124332341
:1050400009F498C130933903809136039091370366
:10505000892B90913803892B90913903892B11F07A
:105060000E94FA0886E0FE013196A4E3B3E00190C5
:105070000D928A95E1F70E94C20790913A03891731
:1050800021F00E94C20780933A0380919D038430EF
:1050900009F0CECE83E08093E9008091E80082FFA2
:1050A000C7CE8091E80090E085FF06C00E94ED0425
:1050B000882309F463C191E08091E8008B778093A5
:1050C000E800992309F4B4CEE981E150E33108F016
:1050D000D7C1F0E0EA56F14D0C94E62C80919D0387
:1050E000843009F440C080E00E940B0810925603FF
:1050F00080912703811116C0909227038091570356
:10510000982F9170909326038E7F809357039FEF83
:10511000E0E7F2E09150E040F040E1F700C000002D
:105120000E942D10109225030FB6F894A895E092D6
:1051300060000FBEB092600083B7817F846083BF40
:1051400083B7816083BF7894889583B78E7F83BF50
:105150000FB6F894A89580916000886180936000F4
:10516000109260000FBE80919C03882361F00E9422
:105170009812ECE5F3E081919191892B09F0E7C257
:10518000CE16DF06C1F780919D03853009F4A6CFC6
:105190000E949E150E9465140E94C2071092270368
:1051A00080912603882349F0809157038160809382
:1051B000570360E086950E94C81A0E94B21A41CE39
:1051C0006F5F880C991C693009F05FCE0F5F1F4F2D
:1051D0000C30110509F04ACE8FEF8EA38FA318A6CD
:1051E0000E946D068160782F9AA789A74EA15FA1C2
:1051F00068A58AA50E942C246FCE863059F4F0E071
:10520000E959F74FE4910E2F10E0B8E88B2EB2E188
:105210009B2E7BCE893061F4E695F0E0EC59F74F98
:10522000E4910E2F10E0A2E68A2EA0E19A2E6DCE18
:105230008F3061F4E695F0E0EF59F74FE4910E2FCF
:1052400010E0FCE88F2EF0E19F2E5FCE853159F4FF
:10525000F0E0E25AF74FE4910E2F10E0EAEF8E2EC5
:10526000E0E19E2E52CE08E210E058E4852E51E196
:10527000952E883109F449CE833249F4ECE5F8E003
:10528000059114917BE1872E72E1972E3ECE04EFBB
:1052900011E041ED842E41E1942E843209F435CEA3
:1052A00000ED17E038E5832E36E0932E853209F0C5
:1052B0002CCE8E2F63E00E94A42CE92FF0E0E75A59
:1052C000F74FE4910E2F10E061E4862E63E1962EF5
:1052D0001CCE20911601FAE02F9F90011124241773
:1052E000350708F065CE9F5F9093310302C09F3F62
:1052F000D1F7882059F00E94D90A9FEF18140CF4B6
:1053000091E0899F802D112480933603992059F0D4
:105310000E94D90A9FEF19140CF491E0899F802D07
:1053200011248093370330913603332309F440CEA0
:1053300020913703222309F43BCE45EB3403C0010F
:105340001124992359F09093360345EB24039001DF
:105350001124332339F0309337032ACE81E0809330
:105360003603F3CF81E08093370322CE81E0809330
:10537000380361CE81E08093390366CE00E210E00D
:10538000CE0101964C018091E80085FD0AC0809114
:10539000E8008B778093E8000E94ED04882399F35E
:1053A0008ACE8091F100F40181934F0101501109DF
:1053B00051F781CE1A8289E08B831AC08A818230AC
:1053C00009F4F4C18330D9F1813009F059C02FB705
:1053D000F8946091740370917503809176039091B5
:1053E00077032FBF0E94EC2C6B837C838D839E837D
:1053F00080919D03843009F01BCD1091E9001F704E
:105400009091EC00892F817090FD80E8182B82E04C
:105410008093E9008091E80080FF0DC050E040E0FB
:1054200060E270E0CE0101960E941E058091E800C6
:105430008E778093E8001F701093E900F9CCDE01AD
:105440001196ECE5F3E080819181329612969C935F
:10545000129713968C931397129623E0E437F20772
:1054600091F7C6CF8A81823059F46B817C818D811E
:105470009E810E94EC2C85E290E00E947F2DB8CFA7
:105480008FEF8983B5CF4C816B818A810E94AB0CF1
:105490009827892798279E838D83AACF8D809E8009
:1054A0009824892498248A810B8142E1049F8001F9
:1054B000112498ED899F000D111D11248C8190E01D
:1054C000880F991F080F191F692DC80186960E9421
:1054D0007F2D682DC8018796D0CF0E94D80E88CF27
:1054E0008A81893091F08A30E9F08A81813871F1BE
:1054F00010F5803809F07CCF20E04B816091590392
:10550000809158030E94951473CF8B81E3E08E9FA6
:10551000C00111246FEF70E00E94BE2C862F0E9404
:105520003008E3CF8B81811103C00E94330FDDCFA0
:105530000E94490FDACF823859F1833809F058CFE9
:1055400020E040915A036C818B81DCCF60E08B813D
:105550000E94C81A9B8180915703911111C08E7FC0
:105560008093570310925603FFEF20E742E0F1507B
:1055700020404040E1F700C000000E942D1038CFCD
:1055800081608093570360E086950E94C81A30CFEF
:105590008B8180935B032CCF8A81893059F08A30CC
:1055A000C1F0813839F1D0F4803809F021CF8091F1
:1055B0005A0302CF80915403869586958695EFEF26
:1055C0008E9FC001112463E070E00E94BE2C6B83AB
:1055D0000FCF8091540386958170EECE823891F082
:1055E000833809F005CF809158038B83809159034C
:1055F0008C83FECE8091570380FF02C08695DCCE5F
:1056000080E0DACE80915B03D7CE809154030E9474
:105610002E0F609157037091580380915903909118
:105620005A030E948314E4CE80E18A83E1CE1A8279
:105630008AE7C2CE0A811B81102701271027CE01DD
:1056400001963C018C80FC01E80DF11D4F01C80161
:105650008A579C4F6814790409F4CACE0A37110599
:1056600050F40E946B2DF30184830F5F1F4FFFEFF7
:105670006F1A7F0AECCFF3011482F7CF0A811B81E6
:10568000102701271027CE0101963C018C80800E47
:10569000912E911CC8018A579C4F8016910609F4DF
:1056A000A7CE0A37110520F4F30164810E947F2DF3
:1056B000FFEF6F1A7F0A0F5F1F4FECCF0E945E0F44
:1056C00097CE84E0B2CF0A811B81102701271027D3
:1056D000CE0101963C018C80FC01E80DF11D4F01CB
:1056E000C80186968614970409F482CE0036F3E04A
:1056F0001F0750F40E946B2DF30184830F5F1F4F2F
:10570000FFEF6F1A7F0AECCFF3011482F7CF0A8103
:105710001B81102701271027CE0101963C018C80A8
:10572000800E912E911CC80186968016910609F470
:105730005FCE0036E3E01E0720F4F30164810E948F
:105740007F2DFFEF6F1A7F0A0F5F1F4FECCF09BD50
:1057500019BD09B400FEFDCF8091D8008F7D8093E4
:10576000D8008091E00082608093E0008091E000AA
:1057700081FDFCCF0E949E1506CD60E085E290E0A1
:105780000E947F2D0E94D80E0E945E0F62E282E28C
:1057900090E00E947F2D62E083E290E00E947F2DE6
:1057A00060E184E290E00E947F2DDECA85E290E015
:1057B0000E946B2D1B821C821D828E8319CE2D327E
:1057C000314008F00ACC40CC78941F921FB61F924B
:1057D00011248F939F93AF93BF9380917403909103
:1057E0007503A0917603B09177030196A11DB11DB9
:1057F0008093740390937503A0937603B09377031B
:10580000BF91AF919F918F911F901FBE1F901895D0
:105810001F921FB61F9211248F939F93AF93BF9334
:1058200080912503811113C08091740390917503B9
:10583000A0917603B09177034196A11DB11D80938D
:10584000740390937503A0937603B0937703BF918D
:10585000AF919F918F911F901FBE1F9018951F921F
:105860000F920FB60F9211242F933F934F935F9394
:105870006F937F938F939F93AF93BF93EF93FF9318
:105880008091060390910703019668EB75E00E94F2
:10589000BE2C90930703809306036BE070E00E9498
:1058A000BE2C6F7780910503823041F4603451F44F
:1058B00080916F008E7F80936F0004C0813011F45F
:1058C0006F37B1F3E62FF0E0E753FC4FE49121E0AE
:1058D00031E0E29FC001E39F900D112463E070E08E
:1058E0000E94BE2C80915403869586958695282F1C
:1058F000269FC001279F900D11240E94CE079093F0
:105900008D0080938C00FF91EF91BF91AF919F919B
:105910008F917F916F915F914F913F912F910F9058
:105920000FBE0F901F901895DB018F939F930E94DD
:10593000D22DBF91AF91A29F800D911DA39F900D7D
:10594000B29F900D11240895991B79E004C0991F0E
:10595000961708F0961B881F7A95C9F780950895C9
:1059600087FB082E062687FD819567FD61950E94BD
:10597000A42C0EF4919507FC81950895AA1BBB1BDE
:1059800051E107C0AA1FBB1FA617B70710F0A61B3F
:10599000B70B881F991F5A95A9F780959095BC0160
:1059A000CD01089597FB072E16F4009407D077FDDC
:1059B00009D00E94BE2C07FC05D03EF4909581953D
:1059C0009F4F0895709561957F4F0895EE0FFF1FCB
:1059D0000590F491E02D0994692796276927782787
:1059E0008727782708950E94072E332312F48A1BF5
:1059F0009B0B0C94FD2C0E94072EB7FF0895821B71
:105A0000930B08958F929F92AF92BF92CF92DF92A5
:105A1000EF92FF92CF93DF93EC01688179818A81C5
:105A20009B81611571058105910521F464E279ED91
:105A30008BE597E02DE133EF41E050E00E94B32D7C
:105A400049015A019B01AC01A7EAB1E40E94D22DA1
:105A50006B017C01ACEEB4EFA50194010E94E02D36
:105A6000DC01CB018C0D9D1DAE1DBF1DB7FF03C01A
:105A70000197A109B04888839983AA83BB839F7744
:105A8000DF91CF91FF90EF90DF90CF90BF90AF90DC
:105A90009F908F9008950E94022D089580E091E0DC
:105AA0000E94022D0895B0E0A0E080930001909341
:105AB0000101A0930201B09303010895FC0141503C
:105AC000504030F001900616D1F73197CF0108957C
:105AD000882799270895F999FECF92BD81BDF89A3C
